{
  "contractName": "VotingSystem",
  "abi": [
    {
      "constant": true,
      "inputs": [],
      "name": "votePrice",
      "outputs": [
        {
          "name": "",
          "type": "uint256"
        }
      ],
      "payable": false,
      "stateMutability": "view",
      "type": "function"
    },
    {
      "constant": true,
      "inputs": [],
      "name": "owner",
      "outputs": [
        {
          "name": "",
          "type": "address"
        }
      ],
      "payable": false,
      "stateMutability": "view",
      "type": "function"
    },
    {
      "constant": true,
      "inputs": [
        {
          "name": "",
          "type": "uint256"
        }
      ],
      "name": "proposalList",
      "outputs": [
        {
          "name": "",
          "type": "string"
        }
      ],
      "payable": false,
      "stateMutability": "view",
      "type": "function"
    },
    {
      "constant": true,
      "inputs": [
        {
          "name": "",
          "type": "address"
        }
      ],
      "name": "voterCounts",
      "outputs": [
        {
          "name": "",
          "type": "uint256"
        }
      ],
      "payable": false,
      "stateMutability": "view",
      "type": "function"
    },
    {
      "constant": true,
      "inputs": [
        {
          "name": "",
          "type": "uint256"
        }
      ],
      "name": "votesReceived",
      "outputs": [
        {
          "name": "",
          "type": "uint256"
        }
      ],
      "payable": false,
      "stateMutability": "view",
      "type": "function"
    },
    {
      "inputs": [],
      "payable": false,
      "stateMutability": "nonpayable",
      "type": "constructor"
    },
    {
      "anonymous": false,
      "inputs": [
        {
          "indexed": false,
          "name": "proposal",
          "type": "string"
        }
      ],
      "name": "ProposalAdded",
      "type": "event"
    },
    {
      "anonymous": false,
      "inputs": [
        {
          "indexed": false,
          "name": "proposal",
          "type": "string"
        },
        {
          "indexed": false,
          "name": "voter",
          "type": "address"
        }
      ],
      "name": "VoteReceived",
      "type": "event"
    },
    {
      "constant": false,
      "inputs": [
        {
          "name": "newProposal",
          "type": "string"
        }
      ],
      "name": "addProposal",
      "outputs": [],
      "payable": false,
      "stateMutability": "nonpayable",
      "type": "function"
    },
    {
      "constant": false,
      "inputs": [
        {
          "name": "proposal",
          "type": "uint256"
        }
      ],
      "name": "voteForProposal",
      "outputs": [],
      "payable": true,
      "stateMutability": "payable",
      "type": "function"
    },
    {
      "constant": true,
      "inputs": [
        {
          "name": "proposal",
          "type": "uint256"
        }
      ],
      "name": "getVoteCount",
      "outputs": [
        {
          "name": "",
          "type": "uint256"
        }
      ],
      "payable": false,
      "stateMutability": "view",
      "type": "function"
    },
    {
      "constant": false,
      "inputs": [
        {
          "name": "newPrice",
          "type": "uint256"
        }
      ],
      "name": "setInitialVotePrice",
      "outputs": [],
      "payable": false,
      "stateMutability": "nonpayable",
      "type": "function"
    },
    {
      "constant": true,
      "inputs": [],
      "name": "getProposalListLength",
      "outputs": [
        {
          "name": "",
          "type": "uint256"
        }
      ],
      "payable": false,
      "stateMutability": "view",
      "type": "function"
    }
  ],
  "bytecode": "0x608060405267016345785d8a000060045534801561001c57600080fd5b50336000806101000a81548173ffffffffffffffffffffffffffffffffffffffff021916908373ffffffffffffffffffffffffffffffffffffffff16021790555067016345785d8a0000600481905550610b838061007b6000396000f3fe60806040526004361061009e576000357c010000000000000000000000000000000000000000000000000000000090048063045c6ce0146100a35780632fdae3c5146100d1578063860c851a146101995780638da5cb5b146101c4578063b2c2f2e81461021b578063b6b0ccf01461026a578063c6311e3f14610295578063da7e8c6514610349578063e57a2791146103ae578063f3084a63146103e9575b600080fd5b6100cf600480360360208110156100b957600080fd5b8101908080359060200190929190505050610438565b005b3480156100dd57600080fd5b50610197600480360360208110156100f457600080fd5b810190808035906020019064010000000081111561011157600080fd5b82018360208201111561012357600080fd5b8035906020019184600183028401116401000000008311171561014557600080fd5b91908080601f016020809104026020016040519081016040528093929190818152602001838380828437600081840152601f19601f82011690508083019250505050505050919291929050505061074a565b005b3480156101a557600080fd5b506101ae610828565b6040518082815260200191505060405180910390f35b3480156101d057600080fd5b506101d961082e565b604051808273ffffffffffffffffffffffffffffffffffffffff1673ffffffffffffffffffffffffffffffffffffffff16815260200191505060405180910390f35b34801561022757600080fd5b506102546004803603602081101561023e57600080fd5b8101908080359060200190929190505050610853565b6040518082815260200191505060405180910390f35b34801561027657600080fd5b5061027f6108ec565b6040518082815260200191505060405180910390f35b3480156102a157600080fd5b506102ce600480360360208110156102b857600080fd5b81019080803590602001909291905050506108f9565b6040518080602001828103825283818151815260200191508051906020019080838360005b8381101561030e5780820151818401526020810190506102f3565b50505050905090810190601f16801561033b5780820380516001836020036101000a031916815260200191505b509250505060405180910390f35b34801561035557600080fd5b506103986004803603602081101561036c57600080fd5b81019080803573ffffffffffffffffffffffffffffffffffffffff1690602001909291905050506109b4565b6040518082815260200191505060405180910390f35b3480156103ba57600080fd5b506103e7600480360360208110156103d157600080fd5b81019080803590602001909291905050506109cc565b005b3480156103f557600080fd5b506104226004803603602081101561040c57600080fd5b8101908080359060200190929190505050610a9a565b6040518082815260200191505060405180910390f35b600380549050811015156104b4576040517f08c379a00000000000000000000000000000000000000000000000000000000081526004018080602001828103825260108152602001807f496e76616c69642070726f706f73616c0000000000000000000000000000000081525060200191505060405180910390fd5b6000600160003373ffffffffffffffffffffffffffffffffffffffff1673ffffffffffffffffffffffffffffffffffffffff1681526020019081526020016000205490506004543410151515610572576040517f08c379a00000000000000000000000000000000000000000000000000000000081526004018080602001828103825260178152602001807f496e73756666696369656e742066756e64732073656e7400000000000000000081525060200191505060405180910390fd5b6002600083815260200190815260200160002060008154809291906001019190505550600160003373ffffffffffffffffffffffffffffffffffffffff1673ffffffffffffffffffffffffffffffffffffffff168152602001908152602001600020600081548092919060010191905055507f58db03f40f6389621238c346a0c0bcbab01dc28a4b5e52e7fb5d7abcc51885b460038381548110151561061457fe5b906000526020600020013360405180806020018373ffffffffffffffffffffffffffffffffffffffff1673ffffffffffffffffffffffffffffffffffffffff1681526020018281038252848181546001816001161561010002031660029004815260200191508054600181600116156101000203166002900480156106da5780601f106106af576101008083540402835291602001916106da565b820191906000526020600020905b8154815290600101906020018083116106bd57829003601f168201915b5050935050505060405180910390a1600454341015156107465760003390508073ffffffffffffffffffffffffffffffffffffffff166108fc60045434039081150290604051600060405180830381858888f19350505050158015610743573d6000803e3d6000fd5b50505b5050565b6003819080600181540180825580915050906001820390600052602060002001600090919290919091509080519060200190610787929190610ab2565b50507f7e462b77205d9bc889740e6a08a3415c6040322fa001a664ca7838319e80d5f9816040518080602001828103825283818151815260200191508051906020019080838360005b838110156107eb5780820151818401526020810190506107d0565b50505050905090810190601f1680156108185780820380516001836020036101000a031916815260200191505b509250505060405180910390a150565b60045481565b6000809054906101000a900473ffffffffffffffffffffffffffffffffffffffff1681565b6000600380549050821015156108d1576040517f08c379a00000000000000000000000000000000000000000000000000000000081526004018080602001828103825260108152602001807f496e76616c69642070726f706f73616c0000000000000000000000000000000081525060200191505060405180910390fd5b60026000838152602001908152602001600020549050919050565b6000600380549050905090565b60038181548110151561090857fe5b906000526020600020016000915090508054600181600116156101000203166002900480601f0160208091040260200160405190810160405280929190818152602001828054600181600116156101000203166002900480156109ac5780601f10610981576101008083540402835291602001916109ac565b820191906000526020600020905b81548152906001019060200180831161098f57829003601f168201915b505050505081565b60016020528060005260406000206000915090505481565b6000809054906101000a900473ffffffffffffffffffffffffffffffffffffffff1673ffffffffffffffffffffffffffffffffffffffff163373ffffffffffffffffffffffffffffffffffffffff16141515610a90576040517f08c379a00000000000000000000000000000000000000000000000000000000081526004018080602001828103825260098152602001807f4e6f74206f776e6572000000000000000000000000000000000000000000000081525060200191505060405180910390fd5b8060048190555050565b60026020528060005260406000206000915090505481565b828054600181600116156101000203166002900490600052602060002090601f016020900481019282601f10610af357805160ff1916838001178555610b21565b82800160010185558215610b21579182015b82811115610b20578251825591602001919060010190610b05565b5b509050610b2e9190610b32565b5090565b610b5491905b80821115610b50576000816000905550600101610b38565b5090565b9056fea165627a7a72305820f575032fbe0df05cdc743bf06a10434c578d03507dfcc795c6452c5d167683ba0029",
  "source": "// SPDX-License-Identifier: MIT\npragma solidity >=0.4.22 <0.9.0;\n\ncontract VotingSystem {\n    address public owner;\n    mapping(address => uint) public voterCounts;\n    mapping(uint => uint) public votesReceived;\n    string[] public proposalList;\n    uint public votePrice = 0.1 ether;\n\n    event ProposalAdded(string proposal);\n    event VoteReceived(string proposal, address voter);\n\n    constructor() public {\n        owner = msg.sender;\n        votePrice = 0.1 ether;\n    }\n\n    // Allow only owner to perform some actions\n    modifier onlyOwner() {\n        require(msg.sender == owner, \"Not owner\");\n        _;\n    }\n\n    // Allow any user to add proposals\n    function addProposal(string memory newProposal) public {\n        proposalList.push(newProposal);\n        emit ProposalAdded(newProposal);\n    }\n\n    function voteForProposal(uint proposal) public payable {\n        require(proposal < proposalList.length, \"Invalid proposal\");\n        uint numVotes = voterCounts[msg.sender];\n\n        require(msg.value >= votePrice, \"Insufficient funds sent\");\n\n        votesReceived[proposal]++;\n        voterCounts[msg.sender]++;\n        emit VoteReceived(proposalList[proposal], msg.sender);\n\n        if (msg.value >= votePrice) {\n            address payable sender = address(uint160(msg.sender));\n            sender.transfer(msg.value - votePrice);\n        }\n    }\n\n    function getVoteCount(uint proposal) public view returns (uint) {\n        require(proposal < proposalList.length, \"Invalid proposal\");\n        return votesReceived[proposal];\n    }\n\n    function setInitialVotePrice(uint newPrice) public onlyOwner {\n        votePrice = newPrice;\n    }\n\n    function getProposalListLength() public view returns (uint) {\n        return proposalList.length;\n    }\n}\n",
  "sourcePath": "/Users/theolouismet/Documents/Laval/blockchain/IFT-4100-TP3/contracts/VotingSystem.sol",
  "compiler": {
    "name": "solc",
    "version": "0.5.1+commit.c8a2cb62.Emscripten.clang"
  },
  "schemaVersion": "3.4.16",
  "updatedAt": "2024-04-15T16:07:24.271Z",
  "devdoc": {
    "methods": {}
  },
  "userdoc": {
    "methods": {}
  }
}